:10000000B2C00000CCC00000CAC00000C8C00000E0
:10001000C6C00000C4C00000C2C00000C0C00000D4
:10002000BEC00000BCC00000B7C40000B8C00000E3
:10003000B6C00000B4C00000B2C00000B0C00000F4
:10004000AEC00000ACC00000AAC00000A8C0000004
:10005000A6C00000A4C00000A2C00000A0C0000014
:100060009EC000009CC000009AC0000098C0000024
:1000700096C0000094C0000092C0000090C0000034
:100080008EC000008CC000008AC0000088C0000044
:1000900086C0000084C0000082C0000080C0000054
:1000A0007EC000007CC000007AC000000501090687
:1000B000A101050719E029E715002501750195083B
:1000C0008102950175088101050819012905950529
:1000D00075019102950175039101150025650507CC
:1000E00019002965950675088100C01201100100EC
:1000F000000008EB03422000000102000109022277
:1001000000010100C03209040000010301010009DF
:100110002111010001223F000705810308000504A9
:1001200003090418034400650061006E00200043C9
:100130000061006D00650072006100000026034C44
:100140000055004600410020004B00650079006228
:10015000006F006100720064002000440065006DC3
:10016000006F0000000011241FBECFEFDAE0DEBFF9
:10017000CDBF12E0A0E0B1E0E8E6F5E102C00590F5
:100180000D92AA33B107D9F712E0AAE3B2E001C099
:100190001D92A735B107E1F729D00C94B20A30CFF0
:1001A00084B7877F84BF88E10FB6F894809360009E
:1001B000109260000FBE90E080E80FB6F894809334
:1001C0006100909361000FBEECEBF0E080818B7FCB
:1001D000808314B817B81AB81DB880E180BB8FEFC0
:1001E00085B988B98BB98EB981BBBEC3D9DF789484
:1001F00080E091E00E94CE0965D7FACF0895089576
:1002000080E091E00E94B509E2EEF0E08081846038
:100210008083089580E091E071C780910E019091F4
:100220000F01009729F0019790930F0180930E0121
:100230000895FA01662329F4853091F48081816064
:1002400006C0663031F4843059F480818062808346
:100250000895693029F4843019F4808180618083A5
:10026000089582E080931001809341020895809167
:100270001001823059F480914102882321F081508D
:1002800080934102089581E0809310010895FB015D
:1002900020913B02222391F020913A02222321F067
:1002A000215020933A0208952081820F911D39E355
:1002B000DC0112963C9312972F5F208308950F93D1
:1002C0001F93CF93DF93E9019881963030F5009129
:1002D000100110E0262F30E0A3E6B0E00A9FF00105
:1002E0000B9FF00D1A9FF00D1124D90173E0AA0F96
:1002F000BB1F7A95E1F7A20FB31FEA0FFB1FEF5E5A
:10030000FE4FE80FF11D2081222339F0490F511DC6
:10031000FA0122839F5F988307C09091100199236F
:1003200011F487DF01C0D7D1DF91CF911F910F91D9
:1003300008958E98869A000083B186988E9A80954B
:10034000881F8827881F0895882311F08C9A0895A4
:100350008C980895880F80933D020895CF93C091A3
:1003600040028C2FF1DF81E08C2780934002CF91F7
:10037000089580913E0290913F02009731F00197DD
:1003800090933F0280933E02089580913D0288231E
:1003900051F0815080933D02E1DF8EE591E0909332
:1003A0003F0280933E02089580911001882321F43A
:1003B00081E08093100103C01092100182E0CACF47
:1003C0009F92AF92BF92CF92DF92EF92FF920F93E4
:1003D0001F93CF93DF938C016B01C0E0D0E0E1E08D
:1003E000EE2EF12C992493942BB1C7010C2E02C050
:1003F000880F991F0A94E2F7B82EA82EA0942A21FC
:100400002BB98AB18B298AB9000000001B9915C04D
:10041000CC2321F4C801B6018AD113C080913C02DB
:10042000882331F486DF882319F090923C02BCDFE8
:10043000F80180818260808304C0C13011F4109281
:100440003C028AB18A218AB98BB18B298BB921965A
:10045000C230D10549F6DF91CF911F910F91FF90E6
:10046000EF90DF90CF90BF90AF909F900895DF9274
:10047000EF92FF920F931F93CF93DF93D82E8B01B0
:100480007A01C0E0D0E0C83061F083B190E00C2E7A
:1004900002C0959587950A94E2F780FD09C08C2FDC
:1004A00003C0669905C088E06D2DA801970107DF9C
:1004B0002196C930D10539F7DF91CF911F910F9166
:1004C000FF90EF90DF9008954F925F927F928F920E
:1004D0009F92AF92BF92CF92DF92EF92FF920F93D3
:1004E0001F93DF93CF930F92CDB7DEB76901280139
:1004F0008FE99FE00197F1F700C000001982B7DE95
:10050000C6018E010F5F1F4FB801C1DEC601B801E1
:1005100057DF2FDF80913C02882309F07AC0F4E096
:10052000EF2EF12CBB24902EA12E01E010E09B2D8C
:100530009430E0F42BB1C8010E2C02C0880F991F33
:100540000A94E2F7882E782E709427212BB98AB16D
:1005500088298AB98B2DB601492D5A2D88DF8AB199
:1005600087218AB98BB188298BB94BC0EB2DE63036
:10057000E8F428B1C7010297A80102C0440F551F33
:100580008A95E2F7842E742E7094272128B987B1BA
:10059000842B87B98B2DB601492D5A2D68DF87B181
:1005A000872187B988B1882988B92BC05B2D59303C
:1005B00058F421B3C7010597F80102C0EE0FFF1FE1
:1005C0008A95E2F7CF010AC021B3C7010D97A801B0
:1005D00002C0440F551F8A95E2F7CA01882E782E73
:1005E0007094272121BB80B3882980BB8B2DB60155
:1005F000492D5A2D3CDF80B3872180BB81B38829E8
:1006000081BBB3940894E11CF11C5B2D5B3009F0B5
:100610008ECF88E090E0F2019183808380E00F909C
:10062000CF91DF911F910F91FF90EF90DF90CF90CE
:10063000BF90AF909F908F907F905F904F90089564
:10064000F901808181FF04C081E080933B0208951D
:1006500010923B020895933089F0943028F4913041
:1006600059F1923071F505C09132E1F0923249F5BD
:100670001EC022E230E0EDEFF0E027C0813049F00B
:10068000813018F08230E9F408C0EFE1F1E0249104
:1006900007C0E3E2F1E0249103C0EDE3F1E024912F
:1006A00030E013C029E030E0EFE0F1E00EC02FE3CE
:1006B00030E0ECEAF0E009C022E130E0EBEEF0E0FF
:1006C00004C020E030E0E0E0F0E0DA011196FC93B5
:1006D000EE93C9010895FA01662351F4853019F4A7
:1006E000808181601AC0833009F58081846015C0E3
:1006F000663029F4843069F4808180620EC06730EE
:1007000071F4823019F48081806407C0833071F401
:10071000A8CD882359F4808188608083089569304A
:1007200029F4843019F48081806180830895FB016D
:1007300020913B02222359F42081820F911D39E33D
:10074000DC0112963C9312972F5F2083089582E07C
:1007500080933A020895982F2CC0292F2F70209350
:10076000E900981739F07091EC002091ED0050915C
:10077000F00003C0242F762F50E021FF19C03091E4
:10078000EB003E7F3093EB003091ED003D7F3093E6
:10079000ED003091EB0031603093EB007093EC0092
:1007A0002093ED005093F0002091EE0027FF08C049
:1007B0009F5F973090F28F708093E90081E00895F9
:1007C00080E008950F931F93CF93DF93162FC82FC8
:1007D000D92F00E02AC09881992329F16B81E98102
:1007E000FA812C81892F8F70873018F56295660FFA
:1007F000660F607C991F9927991F692B223010F092
:1008000096E001C092E028E030E040E003C04F5F96
:10081000220F331F2E173F07D0F34295407F492BFD
:100820009ADF882331F00F5F25960117A0F281E04F
:1008300001C080E0DF91CF911F910F9108958091C9
:100840004F0287FF13C004C080914E028823B9F085
:100850008091E80082FFF8CF8091E8008B77809349
:10086000E800089580914E02882349F08091E800C5
:1008700080FFF8CF8091E8008E778093E80008959C
:100880008091E4009091E50044E62091EC0020FF87
:1008900026C02091E80020FD16C020914E022223A0
:1008A000A1F02530A1F02091EB0025FD12C0209190
:1008B000E4003091E5002817390739F3442359F053
:1008C0004150C901E2CF80E0089582E0089583E0BD
:1008D000089581E0089584E0089580E008952091CE
:1008E000E80022FFDACFF9CF0F931F93CF93DF9366
:1008F00046D04DD0C8EDD0E088818F77888388813D
:100900008068888388818F7D888319BC10924E020D
:1009100010924A0210924C0210924B0200EE10E02C
:10092000F80180818B7F808388818160888380E06B
:1009300060E042E010DFE1EEF0E080818E7F8083B6
:10094000E2EEF0E080818160808380818860808336
:10095000F80180818E7F8083888180618883DF9128
:10096000CF911F910F910895E7EDF0E080818160B4
:10097000808384E082BF81E080934D02B5CFE8EDB3
:10098000F0E080818E7F80831092E20008951092C3
:10099000DA001092E10008951F920F920FB60F92A5
:1009A00011242F933F934F935F936F937F938F9374
:1009B0009F93AF93BF93EF93FF938091E10082FFEA
:1009C0000AC08091E20082FF06C08091E1008B7F27
:1009D0008093E10022DC8091DA0080FF1DC08091CD
:1009E000D80080FF19C08091DA008E7F8093DA00F2
:1009F0008091D90080FF0CC080E189BD82E189BD72
:100A000009B400FEFDCF81E080934E02F7DB04C005
:100A100019BC10924E02F3DB8091E10080FF18C0F8
:100A20008091E20080FF14C08091E2008E7F80936D
:100A3000E2008091E20080618093E2008091D80022
:100A400080628093D80019BC85E080934E0239D330
:100A50008091E10084FF2DC08091E20084FF29C0D5
:100A600080E189BD82E189BD09B400FEFDCF80919E
:100A7000D8008F7D8093D8008091E1008F7E809395
:100A8000E1008091E2008F7E8093E2008091E2009D
:100A900081608093E20080914A02882321F4809152
:100AA000E30087FF02C084E001C081E080934E0232
:100AB00008D38091E10083FF22C08091E20083FF90
:100AC0001EC08091E100877F8093E10082E08093E7
:100AD0004E0210924A028091E1008E7F8093E100E5
:100AE0008091E2008E7F8093E2008091E20080613D
:100AF0008093E20080E060E042E02DDEE2D2FF91F0
:100B0000EF91BF91AF919F918F917F916F915F9185
:100B10004F913F912F910F900FBE0F901F901895FE
:100B20008F929F92BF92CF92DF92EF92FF920F939C
:100B30001F93DF93CF930F92CDB7DEB7E82E4B0113
:100B40008A0199839DDEB82E99818823C9F5F92EF3
:100B50000115110539F0F80120813181821A930ABB
:100B6000E20EF31ECC24DD2426C08091E80085FD32
:100B700017C08091E8008E778093E800A3D201151A
:100B8000110551F0F801808191818C0D9D1D91839B
:100B9000808325E0B22E14C073DE882361F00FC07D
:100BA000F70181917F018093F100089481089108F9
:100BB0000894C11CD11C81149104B9F601C0B82E4F
:100BC0008B2D0F90CF91DF911F910F91FF90EF90A0
:100BD000DF90CF90BF909F908F900895482F592F0E
:100BE000FA0180915502909156028617970718F4E2
:100BF000BC0140E03CC061157105D9F78091E80067
:100C00008E778093E800F5CF80914E02882309F417
:100C100044C08530F1F18091E80083FD3CC08091B3
:100C2000E80082FD30C08091E80080FF20C09091F4
:100C3000F3008091F200392F20E090E0822B932B7B
:100C400006C041914093F1006150704001966115DA
:100C5000710519F088309105A0F341E088309105C5
:100C600009F040E08091E8008E778093E8006115FC
:100C7000710551F6442341F606C080914E02882347
:100C800061F0853061F08091E80082FFF6CF80E06E
:100C9000089583E0089581E0089582E0089583E057
:100CA00008956115710559F525C040914E02442300
:100CB000D1F14530A1F14091E80043FD32C04091AF
:100CC000E80042FFF2CFE82FF92F07C08091F10032
:100CD0008193CF016150704069F0CF015091F300D2
:100CE0004091F200352F20E050E0422B532B41156C
:100CF000510561F74091E8004B774093E80061159A
:100D0000710599F606C080914E02882361F0853006
:100D100061F08091E80080FFF6CF80E0089583E0E5
:100D2000089581E0089582E0089583E00895E82F12
:100D3000F92F80915502909156028617970718F463
:100D4000BC0140E03EC061157105D9F78091E80013
:100D50008E778093E800F5CF80914E02882309F4C6
:100D600046C0853009F43FC08091E80083FD3DC056
:100D70008091E80082FD31C08091E80080FF21C0B1
:100D80009091F3008091F200392F20E090E0822BC7
:100D9000932B07C044914093F1003196615070400D
:100DA00001966115710519F08830910598F341E0BD
:100DB0008830910509F040E08091E8008E778093BB
:100DC000E8006115710541F6442331F606C08091B3
:100DD0004E02882361F0853061F08091E80082FF47
:100DE000F6CF80E0089583E0089581E0089582E0E1
:100DF000089583E008950F931F93DF93CF93CDB7AA
:100E0000DEB7AC970FB6F894DEBF0FBECDBFEFE4F0
:100E1000F2E08091F100819322E0E735F207C9F713
:100E2000F9D98091E80083FF33C180914F0220916E
:100E30005002253009F484C0263040F42130A1F15D
:100E4000213070F0233009F023C12EC0283009F47E
:100E5000F1C0293009F400C1263009F019C194C04D
:100E6000803821F0823809F013C108C080914B020C
:100E700090914C02992371F082600CC080915302D2
:100E80008F708093E9009091EB0081E095FF80E006
:100E90001092E9009091E800977F9093E80080938A
:100EA000F1001092F100D1C0882319F0823009F0CE
:100EB000EFC090E08F719070009729F0823091051B
:100EC00009F0E6C00BC080915102813009F0E0C00A
:100ED000233009F080E080934C022CC080915102B5
:100EE000882341F5209153022F7009F4D1C020933B
:100EF000E9008091EB0080FF1DC08091500283309B
:100F000021F48091EB00806213C08091EB0080613E
:100F10008093EB0081E090E002C0880F991F2A9532
:100F2000E2F78093EA001092EA008091EB0088607B
:100F30008093EB001092E9008091E800877F88C0E1
:100F4000882309F0A5C0109151021F770FB7F894BC
:100F50008091E800877F8093E80071DC8091E80051
:100F600080FFFCCF8091E3008078812B8093E300A9
:100F700080688093E300112311F083E001C082E0D8
:100F800080934E020FBF84C08058823008F080C02A
:100F9000809151029091520223E08C3D920791F58D
:100FA00083E08C838AE28B835FB7F894DE01159629
:100FB00080E090E04EE061E2E42FF0E060935700C3
:100FC000E49180FF03C0E295EF704F5FEF702E2F2A
:100FD00030E0EA3018F0295C3F4F02C0205D3F4FFF
:100FE0002D933D9301968431910531F75FBF809138
:100FF000E800877F8093E800CE0103966AE270E004
:10100000EDDD12C060915302AE014F5F5F4F23DBF5
:10101000BC01009709F43CC08091E800877F809371
:10102000E80089819A8183DE8091E8008B77809344
:10103000E8002EC0803861F58091E800877F8093BA
:10104000E80080914A028093F1008091E8008E7759
:101050008093E800F4DB1CC08823D1F49091510206
:101060009230B0F48091E800877F8093E8009093FD
:101070004A02E5DB80914A02882321F48091E30053
:1010800087FF02C084E001C081E080934E02B8D89F
:101090008091E80083FF0AC08091EB00806280931A
:1010A000EB008091E800877F8093E800AC960FB654
:1010B000F894DEBF0FBECDBFCF91DF911F910F918E
:1010C00008950895CF9380914E028823A9F08091CE
:1010D000E9008F709091EC0090FF02C0C0E801C061
:1010E000C0E0C82B1092E9008091E80083FF01C0A6
:1010F00082DECF70C093E900CF9108956F927F9206
:101100008F929F92AF92BF92CF92DF92EF92FF9217
:101110000F931F93DF93CF9300D00F92CDB7DEB71D
:101120007C016DB67EB68091E80083FF07C1F701B0
:10113000808190E0209153023091540228173907A2
:1011400009F0FCC080915002833009F49EC08430C5
:1011500030F4813071F0823009F0F0C0D3C08A30B1
:1011600009F4B8C08B3009F4A1C0893009F0E6C099
:101170004FC080914F02813A09F0E0C09DB68EB613
:101180001B821A8280915102009152028983F701D9
:1011900040858DB79EB7841B91090FB6F8949EBF0A
:1011A0000FBE8DBFCDB6DEB60894C11CD11CBC2CC1
:1011B000AD2CC60160E070E050E0CDD1402F415031
:1011C000C701BE016F5F7F4F96018E010E5F1F4FFB
:1011D0007BD9F701268137812115310529F040851A
:1011E000C901B60150E0AED11092E9008091E8004B
:1011F000877F8093E8006A817B818B2D9A2DEEDCBE
:101200008091E8008B778093E8009DBE8EBE96C0EB
:1012100080914F02813209F091C0BDB69EB6009117
:10122000550210915602A0905102809052028DB743
:101230009EB7801B910B0FB6F8949EBF0FBE8DBF5B
:10124000CDB6DEB60894C11CD11C8091E800877F22
:101250008093E800C601B80124DD8091E8008E7714
:101260008093E80081E090E0AA2011F480E090E013
:10127000482D41509601280F391F081B190BC70133
:101280006A2DDED9BDBE9EBE59C080914F02813A03
:1012900009F054C08091E800877F8093E800809136
:1012A000E80080FFFCCFF701818540C080914F02AC
:1012B000813209F043C08091E800877F8093E80085
:1012C000BEDA9091510281E0992309F480E0F701A0
:1012D000818734C080914F02813281F58091E8008E
:1012E000877F8093E800ABDA80915102909152029F
:1012F000807036E0969587953A95E1F7F7019587E6
:1013000084871CC080914F02813AC1F48091E8002B
:10131000877F8093E8008091E80080FFFCCFF70191
:101320008485958596958795969587958093F10008
:101330008091E8008E778093E80081DA0FB6F89408
:101340007EBE0FBE6DBE0F900F900F90CF91DF91BC
:101350001F910F91FF90EF90DF90CF90BF90AF90D3
:101360009F908F907F906F900895CF93DF93FC01B3
:101370000996DC0187E0ED0119928A95E9F781E091
:10138000818784EF91E09587848783E08483CF0110
:10139000019661E017DADF91CF9108955F926F9225
:1013A0007F928F929F92AF92BF92CF92DF92EF92F5
:1013B000FF920F931F93DF93CF9300D000D0CDB750
:1013C000DEB77C016DB67EB680914E02843009F0A6
:1013D00093C08091E4009091E500F7012285338568
:1013E0002817390709F488C081818F708093E9003C
:1013F0008091E80085FF80C08DB65EB640858DB7D0
:101400009EB7841B91090FB6F8949EBF0FBE8DBF87
:101410000DB71EB70F5F1F4FB02EA12E19821B8272
:101420001A82C80160E070E050E095D0C701BE01AB
:101430006F5F7F4F40E098018E010E5F1F4F44D8D1
:10144000982EF70184859585009759F081E090E00A
:10145000268537852115310511F080E090E06C017B
:1014600002C0CC24DD24F701068117810115110586
:10147000A1F04A815B818B2D9A2DB80156D021E0D5
:10148000009709F420E0F7014085C8016B2D7A2D03
:1014900050E02C8357D02C8101C020E08A819B81B1
:1014A000009709F1992029F4222319F4C114D104D9
:1014B000D1F0F701848595859787868781818F7024
:1014C0008093E9008981882311F08093F1006A817B
:1014D0007B818B2D9A2D40E050E022DB8091E8004B
:1014E0008E778093E8008091E4009091E500F70109
:1014F000938782878DBE5EBE0FB6F8947EBE0FBE08
:101500006DBE0F900F900F900F90CF91DF911F91B4
:101510000F91FF90EF90DF90CF90BF90AF909F9092
:101520008F907F906F905F900895FB01DC0104C065
:101530008D910190801921F441505040C8F7881BCB
:10154000990B0895FB01DC0102C001900D924150FE
:101550005040D8F70895DC0101C06D9341505040D0
:08156000E0F70895F894FFCFB5
:10156800008108000001420208000000000000009D
:10157800011E352B292C00141F00201A04001D16EB
:101588000821002215071B0609172300241C0A1925
:10159800050B182500260C0D11100E1227002D130F
:1015A8000F3637332F2E004930343800314C4A007B
:1015B8002A284F513A3C3E4000000000000000003D
:1015C8000048605A5C5E00000000001A1604071B01
:1015D8000A0B0C0D1E292B002C00141F00201A04C6
:1015E800001D160821002215071B060917230024D1
:1015F8001C0A19050B182500260C0D11100E1227B0
:10160800002D130F3637332F2E00003034380031B9
:10161800644A004C2800003A3C3E400000000000AC
:10162800000000002A605A5C5E00000000001A16E4
:1016380004072C0A0B0C0D3A352B002C00143B0028
:101648003C5250001D51083D003E154F1B0609171E
:101658003F00401C0A19050B18410042460D1110A5
:101668004A47430044484B4D4E5052450000304FC6
:10167800510031644A004928000080817F40000001
:10168800000000000000007F605A5C5E000000005F
:0A169800001A1604072C0A0B0C0DB3
:00000001FF
